{
  "contractName": "Ballot",
  "abi": [
    {
      "inputs": [
        {
          "name": "_numProposals",
          "type": "uint8"
        }
      ],
      "payable": false,
      "stateMutability": "nonpayable",
      "type": "constructor"
    },
    {
      "constant": false,
      "inputs": [
        {
          "name": "toVoter",
          "type": "address"
        }
      ],
      "name": "register",
      "outputs": [],
      "payable": false,
      "stateMutability": "nonpayable",
      "type": "function"
    },
    {
      "constant": false,
      "inputs": [
        {
          "name": "toProposal",
          "type": "uint8"
        }
      ],
      "name": "vote",
      "outputs": [],
      "payable": false,
      "stateMutability": "nonpayable",
      "type": "function"
    },
    {
      "constant": true,
      "inputs": [
        {
          "name": "prop",
          "type": "uint8"
        }
      ],
      "name": "CurrentVote",
      "outputs": [
        {
          "name": "numVote",
          "type": "uint256"
        }
      ],
      "payable": false,
      "stateMutability": "view",
      "type": "function"
    },
    {
      "constant": true,
      "inputs": [],
      "name": "winningProposal",
      "outputs": [
        {
          "name": "_winningProposal",
          "type": "uint8"
        }
      ],
      "payable": false,
      "stateMutability": "view",
      "type": "function"
    }
  ],
  "bytecode": "0x608060405234801561001057600080fd5b5060405160208061067483398101806040528101908080519060200190929190505050336000806101000a81548173ffffffffffffffffffffffffffffffffffffffff021916908373ffffffffffffffffffffffffffffffffffffffff1602179055506002600160008060009054906101000a900473ffffffffffffffffffffffffffffffffffffffff1673ffffffffffffffffffffffffffffffffffffffff1673ffffffffffffffffffffffffffffffffffffffff168152602001908152602001600020600001819055508060ff166002816100ed91906100f4565b5050610147565b81548183558181111561011b5781836000526020600020918201910161011a9190610120565b5b505050565b61014491905b808211156101405760008082016000905550600101610126565b5090565b90565b61051e806101566000396000f300608060405260043610610062576000357c0100000000000000000000000000000000000000000000000000000000900463ffffffff1680634420e48614610067578063609ff1bd146100aa578063b3f98adc146100db578063b8244ec41461010b575b600080fd5b34801561007357600080fd5b506100a8600480360381019080803573ffffffffffffffffffffffffffffffffffffffff16906020019092919050505061014f565b005b3480156100b657600080fd5b506100bf6102b1565b604051808260ff1660ff16815260200191505060405180910390f35b3480156100e757600080fd5b50610109600480360381019080803560ff1690602001909291905050506103ee565b005b34801561011757600080fd5b50610139600480360381019080803560ff1690602001909291905050506104c9565b6040518082815260200191505060405180910390f35b6000809054906101000a900473ffffffffffffffffffffffffffffffffffffffff1673ffffffffffffffffffffffffffffffffffffffff163373ffffffffffffffffffffffffffffffffffffffff161415156101aa57600080fd5b60001515600160008373ffffffffffffffffffffffffffffffffffffffff1673ffffffffffffffffffffffffffffffffffffffff16815260200190815260200160002060010160009054906101000a900460ff16151514151561020c57600080fd5b60018060008373ffffffffffffffffffffffffffffffffffffffff1673ffffffffffffffffffffffffffffffffffffffff168152602001908152602001600020600001819055506000600160008373ffffffffffffffffffffffffffffffffffffffff1673ffffffffffffffffffffffffffffffffffffffff16815260200190815260200160002060010160006101000a81548160ff02191690831515021790555050565b6000806000809150600090505b6002805490508160ff1610156103e9578160028260ff168154811015156102e157fe5b9060005260206000200160000154111561031f5760028160ff1681548110151561030757fe5b906000526020600020016000015491508092506103dc565b8160028260ff1681548110151561033257fe5b906000526020600020016000015414156103db578060ff16600160008060009054906101000a900473ffffffffffffffffffffffffffffffffffffffff1673ffffffffffffffffffffffffffffffffffffffff1673ffffffffffffffffffffffffffffffffffffffff1681526020019081526020016000206002015414156103da5760028160ff168154811015156103c657fe5b906000526020600020016000015491508092505b5b5b80806001019150506102be565b505090565b6000600160003373ffffffffffffffffffffffffffffffffffffffff1673ffffffffffffffffffffffffffffffffffffffff1681526020019081526020016000209050600015158160010160009054906101000a900460ff16151514151561045557600080fd5b6002805490508260ff1610151561046b57600080fd5b60018160010160006101000a81548160ff0219169083151502179055508160ff168160020181905550806000015460028360ff168154811015156104ab57fe5b90600052602060002001600001600082825401925050819055505050565b600060028260ff168154811015156104dd57fe5b906000526020600020016000015490509190505600a165627a7a723058208084791a550c235df0d61839f74d643d2ea9f73eaeea8d12dbcaa2ec40c9aec00029",
  "source": "pragma solidity ^0.4.25;\n\ncontract Ballot{\n    struct Voter{\n        uint weight;\n        bool isVoted;\n        uint vote;\n    }\n    struct Proposal{\n        uint voteCount;\n    }\n\n    address chairPerson;\n    mapping(address=>Voter) voter;\n    Proposal[] proposal;\n\n    constructor(uint8 _numProposals) public{\n        chairPerson= msg.sender;\n        voter[chairPerson].weight=2;\n        proposal.length= _numProposals;\n    }\n\n    function register(address toVoter) public{\n        require(msg.sender==chairPerson);\n        require(voter[toVoter].isVoted==false);\n        // if(msg.sender!=chairPerson||voter[toVoter].isVoted) return ;\n        voter[toVoter].weight=1;\n        voter[toVoter].isVoted=false;\n    }\n\n    function vote(uint8 toProposal) public{\n        Voter storage sender= voter[msg.sender];\n        require(sender.isVoted==false);\n        require(toProposal<proposal.length);\n        // if(sender.isVoted||toProposal>=proposal.length) return;\n        sender.isVoted= true;\n        sender.vote= toProposal;\n        proposal[toProposal].voteCount+= sender.weight;\n    }\n\n    // function CurrentVote(uint8 prop) public view returns(uint256 numVote){\n    //     numVote= proposal[prop].voteCount;\n    // }\n\n    function CurrentVote(uint8 prop) public view returns(uint256 numVote) {\n        numVote= proposal[prop].voteCount;\n    }\n\n\n    function winningProposal() public view returns (uint8 _winningProposal){\n        uint256 winningVoteCount = 0;\n        \n        for(uint8 prop=0;prop<proposal.length;prop++){\n            if(proposal[prop].voteCount>winningVoteCount){\n                winningVoteCount=proposal[prop].voteCount;\n                _winningProposal= prop;\n            }else if(proposal[prop].voteCount==winningVoteCount){\n                if(voter[chairPerson].vote==prop){\n                    winningVoteCount=proposal[prop].voteCount;\n                    _winningProposal= prop;\n                }\n            }\n        }\n    }\n\n\n\n}\n",
  "sourcePath": "/home/kenjyh301/WorkSpace/BlockChainCoursera/Dapp/BallotV1/contracts/BallotV1.sol",
  "compiler": {
    "name": "solc",
    "version": "0.4.25+commit.59dbf8f1.Emscripten.clang"
  },
  "schemaVersion": "2.0.2",
  "updatedAt": "2021-12-12T15:12:22.801Z"
}